:0C0000002DC0FECFFDCFFCCFFBCFFACF10
:10000C00F9CFF8CFF7CFF6CFF5CFF4CFF3CFF2CFC0
:10001C0068C0F0CFEFCFEECFEDCF46C0EBCF1027BF
:10002C00E80364000A000100001000011000010048
:10003C000000000048656C6C6F0080C00400040078
:10004C003C000600E00040000200FF0046000000FB
:10005C00F894EE27ECBBF1E0FBBFEBBFE5BF8DE006
:10006C00A2E0BB27ED938A95E9F780E092E0A0E649
:10007C00ED930197E9F7E8E4F0E08591959100970D
:10008C0061F0A591B59105901590BF01F001059017
:10009C000D920197E1F7FB01F0CFEFE5EDBFE2E048
:1000AC00EEBFC0EED0E04BC0EA93FA93EFB7EA9301
:1000BC00F20131962F01E3E0F0E0E415F50561F46F
:1000CC0044245524F30131963F01E2E3F0E0E615B8
:1000DC00F70511F466247724E991EFBFF991E991C2
:1000EC0018958A93AA93BA93EA93FA93EFB7EA9383
:1000FC00E091EE00A6EEB0E0F0E0EE0FFF1FAE0FC9
:10010C00BF1FE4B1F5B1ED93FC93A091EE00AF5F8E
:10011C00A093EE00A43018F0E0E0E093EE00E09144
:10012C00EE00E05CE7B985E38A95F1F7369AE99140
:10013C00EFBFF991E991B991A99189911895E0E0F6
:10014C00EABBEBBBE7BBE8BBE4BBE5BBE1BBE2BB9B
:10015C00EDE0E3BFE0E0E2BFE9EFECBFE0E0EFBDD4
:10016C00EEBDEDBDECBDE7BDE6BDEBBDEABDE9BD49
:10017C00E8BDE2BDE5BDE4BDE3BDE2E0E9BFE0E022
:10018C00E5BFE4BFEAB9E0E8E8B9E0E4E7B9EDEED1
:10019C00E6B9E0E1E0BFE0E0EDB9E6BFA8E208D1E6
:1001AC00A4E106D1A4E104D12ED130D1A0EEB0E06F
:1001BC00F0D029D12DD1A2E3DAD0CFD0789423D1AD
:1001CC0027D128D12ED1E1E030D124D130D129D181
:1001DC00E2E02BD11FD12BD12FD123D1E3E025D1BC
:1001EC0019D125D129D12DD1E6E01FD12ED119D18C
:1001FC00E7E01BD12AD11BD114D1E8E016D125D1CF
:10020C0016D11AD10ED1E9E010D11FD110D114D1D1
:10021C0018D1F9D021D105D1E1E0EA931DD107D154
:10022C0000D1E2E0EA9318D102D106D1FAD0E3E092
:10023C00EA9312D1FCD000D104D1E6E016D1F1D072
:10024C00E7E013D1F4D0EDD0E8E00FD1F0D0F4D04A
:10025C00E8D0E9E00AD1EBD0EFD0F3D0E091E600A2
:10026C00F091E7000CD1E093EF00F093F000609375
:10027C00F1007093F200C7D0C9D011D11DD1E1E0CB
:10028C001FD10DD11FD118D1E2E01AD108D11AD14A
:10029C001ED112D1E3E014D102D114D118D11CD14A
:1002AC00E091E800F091E900EAD0E093F300F093DC
:1002BC00F4006093F5007093F600E6E001D110D1E4
:1002CC00FBD0E7E0FDD00CD1FDD0F6D0E8E0F8D0C3
:1002DC0007D1F8D0FCD0F0D0E9E0F2D001D1F2D0C7
:1002EC00F6D0FAD0EFE0ECD0D301EAE0F0E0E4D0C5
:1002FC00E0E1E6D0D301EAE0F0E0EED060CFFFCF52
:10030C001A931A2FE8B3EF70AE2FE12FE07FEA2B90
:10031C00E8BBF3D0C29AF1D0C298EFD072C0AA93C6
:10032C00A881EEDFE881E295E883A881E9DF88EC1B
:10033C0090E00197F1F721960895F0D01A2F0A81D9
:10034C00E12FF0E0E150FF4FE081E00FAE2FE7DF4F
:10035C00902E812EE8D023960895A2E0D2D0ACE066
:10036C00DEDFA1E0CED0E0E08E2E9E2E08951A9313
:10037C001A2F1A3011F09B1430F045D08394A82D0D
:10038C00DCDF1A30F1F19394C09AA12FC8DFC0982A
:10039C0038C0C2D09D01D9012F5F3F4FEC911E2F69
:1003AC00E03019F0A12FE3DFF6CFBBD024960895EF
:1003BC001A931A2FE7B3E06FE7BBBA9AB89AB99AB7
:1003CC00C298C098C198B12EE12FE058E09301017A
:1003DC00E12FE054E0930201A4E1B0E00FD295D0FC
:1003EC0094D093D0A0E28CDF80E991E00197F1F7F3
:1003FC00A8E295DFA4E093DFA5E891DFA6E08FDF0C
:10040C00ACDF19910895E0E0EA930895A0E095CF50
:10041C00A1E093CFA091E600B091E700E8EEF3E005
:10042C00089590D0E05DAE2FA2CFEA93F1CFA2D089
:10043C00DF01E4E6F0E008959DD0DF01EAE0F0E0B2
:10044C00089598D0E05DAE2F92CFA091E800B091C6
:10045C00E900E8EEF3E00895A3E06FDFA091EA0075
:10046C00B091EB00E8EEF3E00895EA93A3E065DFCA
:10047C00A091EC00B091ED00E8EEF3E00895662752
:10048C007727FDD0A0E0B0E48CE995E425D1DF011D
:10049C00CB01E0E0F0EC6FE774E46CD10895E091EF
:1004AC00EF00F091F0006091F1007091F200B0D08B
:1004BC00DF01E8EEF3E0089558D0E05DAE2F57CFA2
:1004CC00EA93A4CF5AD0DF01E4E6F0E0089555D0CA
:1004DC00DF01EAE0F0E0089550D0E05DAE2F47CFA9
:1004EC00E091F300F091F4006091F5007091F6004A
:1004FC008FD0DF01E8EEF3E008958BE18A95F1F7F8
:10050C0008950DDFA3E0B0E079C1A0E3F9DE80E946
:10051C0091E00197F1F708953A932A931A930A936D
:10052C0008953B812A81198108810895F195E195FF
:10053C00F0400895F09560957095E195FF4F6F4FE1
:10054C007F4F08950024112490E1AA0FBB1F001CBB
:10055C00111C0E1A1F0A18F40E0E1F1E01C0A160EA
:10056C009A9599F7FD01D001089515D0EBDF0EF4A3
:10057C00DDDF0895E7DFFD010895E894B7FF04C0BF
:10058C00B195A195B0406894F7FDD0DFDBDFFD019C
:10059C000EF4CCDF0895E894F7FF02C0C7DF68942F
:1005AC00B7FF06C0B195A195B04000F8039400FACE
:1005BC000895552342F4503811F4E0FF04C03196ED
:1005CC00691F791F6BF050E8572711F45F9373C0C4
:1005DC005F3F31F0660F000C57956795752F0895A6
:1005EC005F9300200AF072C06BC050E8192E1522E0
:1005FC00880F991F9527550F879550E8072E0522D0
:10060C00660F771F7527550F67950895689401C07D
:10061C00E8945F93F2DF703818F07F3F08F44BC01A
:10062C0056E1571BAAF4519558300EF4593030F05E
:10063C00EFEFFFEF6FEF7FE777F91AC077275523BE
:10064C00B9F0EE0FFF1F661F771F5A95D1F710C038
:10065C007727583028F0EF2FF62F672F5850F9CF07
:10066C00552331F076956795F795E7955A95D1F71F
:10067C0000200AF45FDF5F910895689401C0E8944C
:10068C00309760407040B1F0002426F0772312F4CC
:10069C00009450DF172E7EE1112032F07A95EE0F88
:1006AC00FF1F661F111CF9CFEF2FF62F612D5F93E3
:1006BC008ADF5F910895EE27FF27BF015F910895B0
:1006CC00EFEFFFEF6FE77FEF5F910895EFEFFFEF35
:1006DC006FE77FE75F9108955F9387DF703859F379
:1006EC00903849F301240894791F23F424F3002053
:1006FC003AF3ECCF0F921F932F933F934F93112705
:10070C0022279927689FA0018F9F302D410D591FDB
:10071C006B9F300D411D591F8E9F27D0BF9F25D039
:10072C006A9F23D0BE9F1DD0AF9F1BD0AE9F110DD3
:10073C00291F391F491F591FE32FF42F652F522FE3
:10074C004F913F912F911F910F9066232AF0550FD7
:10075C00EE1FFF1F661F02C073954BF22ADF5F91DD
:10076C000895100D211D391F02C0200D311D491F88
:10077C00591F08955F9339DF703821F411200AF462
:10078C009FCFA4CF903809F496CF01240894970BEF
:10079C001BF4D4F30020F3CF792F1F932F933F93A7
:1007AC004F931124112722273327A90190E2AE176A
:1007BC00BF078607410730F0AE1BBF0B860B410B02
:1007CC00089401C08894551F221F331F111CAA1FA7
:1007DC00BB1F881F441F9A9551F7F901612D4F914A
:1007EC003F912F911F91662332F0550FEE1FFF1F83
:1007FC00661F7A954BF2DDDE5F910895109639F005
:10080C00A89580EA9FE00197F1F71197C9F7089531
:00000001FF
