:0600000028C0FECFFDCF79
:10000600FCCFFBCFFACFF9CFF8CFF7CFF6CFF5CFAE
:10001600F4CFF3CFF2CF46C0F0CFEFCFEECFEDCF98
:10002600ECCFEBCF1027E80364000A0001000010B4
:1000360000011000010048656C6C6F0080C006006E
:10004600E0003C000200F30042000000F894EE27B6
:10005600ECBBF1E0FBBFEBBFE5BF8DE0A2E0BB2749
:10006600ED938A95E9F780E092E0A0E6ED9301979B
:10007600E9F7E4E4F0E085919591009761F0A591A8
:10008600B59105901590BF01F00105900D9201976D
:10009600E1F7FB01F0CFEFE5EDBFE2E0EEBFC0EE2A
:1000A600D0E02EC08A93AA93BA93EA93FA93EFB755
:1000B600EA93E091EA00A6EEB0E0F0E0EE0FFF1F53
:1000C600AE0FBF1FE4B1F5B1ED93FC93A091EA002A
:1000D600AF5FA093EA00A23018F0E0E0E093EA00F8
:1000E600E091EA00E05CE7B985E38A95F1F7369A94
:1000F600E991EFBFF991E991B991A9918991189583
:10010600E0E0EABBEBBBE7BBE8BBE4BBE5BBE1BBBE
:10011600E2BBE3BFE2BFECBFEFBDEEBDEDBDECBDA4
:10012600E7BDE6BDEBBDEABDE9BDE8BDE2BDE5BDA7
:10013600E4BDE3BDE9BFE5BFE4BFEAB9E0E8E8B97D
:10014600E0E4E7B9EEEEE6B9E0E1E0BFE0E0EDB904
:10015600E6BFA4E1DBD0A4E1D9D002D104D1A0EE60
:10016600B0E0C5D0FDD001D1A2E3AFD0A0D0A8ECBD
:10017600FED07894F5D0F9D0FCD002D1E1E004D1DC
:10018600F8D004D1FDD0E2E0FFD0F3D0FFD003D108
:10019600F7D0E3E0F9D0EDD0F9D0FDD001D1EAE017
:1001A600F3D002D1EDD0EBE0EFD0FED0EFD0E8D027
:1001B600ECE0EAD0F9D0EAD0EED0E2D0EDE0E4D03F
:1001C600F3D0E4D0E8D0ECD0E091E600F091E7007F
:1001D600F2D0E093EB00F093EC006093ED007093A7
:1001E600EE00BED0C0D0F7D003D1E1E005D1F3D008
:1001F60005D1FED0E2E000D1EED000D104D1F8D096
:10020600E3E0FAD0E8D0FAD0FED002D1E091E800DF
:10021600F091E900D0D0E093EF00F093F000609306
:10022600F1007093F200EAE0E7D0F6D0E1D0EBE01F
:10023600E3D0F2D0E3D0DCD0ECE0DED0EDD0DED0FF
:10024600E2D0D6D0EDE0D8D0E7D0D8D0DCD0E0D020
:1002560091CFFFCF1A931A2FE8B3EF70AE2FE12F8D
:10026600E07FEA2BE8BBE5D0C29AE3D0C298E1D0A2
:1002760075C0AA93A881EEDFE881E295E883A8819C
:10028600E9DF88EC90E00197F1F721960895DED03A
:100296001A2F0A81E12FF0E0ED50FF4FE081E00FC9
:1002A600AE2FE7DF502E412ED6D023960895A2E03A
:1002B600E0DFA3E05CD0ACE0DCDFA1E0DADFA3E0C6
:1002C60056D0E0E04E2E5E2E08951A931A2F1A305D
:1002D60011F0571430F044D04394A42DD8DF1A30CF
:1002E600E9F15394C09AA12FC4DFC09837C0ACD0AF
:1002F6009D01D9012F5F3F4FEC911E2FE03019F081
:10030600A12FE3DFF6CFA5D0249608951A931A2FCE
:10031600E7B3E06FE7BBBA9AB89AB99AC298C098A1
:10032600C198712EE12FE058E093F500E12FE054DB
:10033600E093F600A4E11BD080D07FD07ED0A0E26F
:1003460089DF80E991E00197F1F7A8E292DFA4E066
:1003560090DFA5E88EDFA6E08CDFA9DF199108956E
:10036600E0E0EA930895A0E092CFA1E090CFB0E05C
:10037600DDC1A091E600B091E700E8EEF3E0089554
:1003860079D0E05DAE2FA1CFEA93EFCF8BD0DF011E
:10039600E4E6F0E0089586D0DF01EAE0F0E00895B3
:1003A60081D0E05DAE2F91CFA091E800B091E90039
:1003B600E8EEF3E0089566277727F9D0A0E0B0E4E9
:1003C6008CE995E421D1DF01CB01E0E0F0EC6FE7A9
:1003D60074E468D10895E091EB00F091EC0060912F
:1003E600ED007091EE00ACD0DF01E8EEF3E0089589
:1003F60054D0E05DAE2F69CFEA93B5CF56D0DF017A
:10040600E4E6F0E0089551D0DF01EAE0F0E0089577
:100416004CD0E05DAE2F59CFE091EF00F091F000A7
:100426006091F1007091F2008BD0DF01E8EEF3E00D
:1004360008958BE18A95F1F70895A0E30BDF80E933
:1004460091E00197F1F708953A932A931A930A9344
:1004560008953B812A81198108810895F195E195D6
:10046600F0400895F09560957095E195FF4F6F4FB8
:100476007F4F08950024112490E1AA0FBB1F001C92
:10048600111C0E1A1F0A18F40E0E1F1E01C0A160C1
:100496009A9599F7FD01D001089515D0EBDF0EF47A
:1004A600DDDF0895E7DFFD010895E894B7FF04C096
:1004B600B195A195B0406894F7FDD0DFDBDFFD0173
:1004C6000EF4CCDF0895E894F7FF02C0C7DF689406
:1004D600B7FF06C0B195A195B04000F8039400FAA5
:1004E6000895552342F4503811F4E0FF04C03196C4
:1004F600691F791F6BF050E8572711F45F9373C09B
:100506005F3F31F0660F000C57956795752F08957C
:100516005F9300200AF072C06BC050E8192E1522B6
:10052600880F991F9527550F879550E8072E0522A6
:10053600660F771F7527550F67950895689401C054
:10054600E8945F93F2DF703818F07F3F08F44BC0F1
:1005560056E1571BAAF4519558300EF4593030F035
:10056600EFEFFFEF6FEF7FE777F91AC07727552395
:10057600B9F0EE0FFF1F661F771F5A95D1F710C00F
:100586007727583028F0EF2FF62F672F5850F9CFDE
:10059600552331F076956795F795E7955A95D1F7F6
:1005A60000200AF45FDF5F910895689401C0E89423
:1005B600309760407040B1F0002426F0772312F4A3
:1005C600009450DF172E7EE1112032F07A95EE0F5F
:1005D600FF1F661F111CF9CFEF2FF62F612D5F93BA
:1005E6008ADF5F910895EE27FF27BF015F91089587
:1005F600EFEFFFEF6FE77FEF5F910895EFEFFFEF0C
:100606006FE77FE75F9108955F9387DF703859F34F
:10061600903849F301240894791F23F424F3002029
:100626003AF3ECCF0F921F932F933F934F931127DB
:1006360022279927689FA0018F9F302D410D591FB2
:100646006B9F300D411D591F8E9F27D0BF9F25D010
:100656006A9F23D0BE9F1DD0AF9F1BD0AE9F110DAA
:10066600291F391F491F591FE32FF42F652F522FBA
:100676004F913F912F911F910F9066232AF0550FAE
:10068600EE1FFF1F661F02C073954BF22ADF5F91B4
:100696000895100D211D391F02C0200D311D491F5F
:1006A600591F08955F9339DF703821F411200AF439
:1006B6009FCFA4CF903809F496CF01240894970BC6
:1006C6001BF4D4F30020F3CF792F1F932F933F937E
:1006D6004F931124112722273327A90190E2AE1741
:1006E600BF078607410730F0AE1BBF0B860B410BD9
:1006F600089401C08894551F221F331F111CAA1F7E
:10070600BB1F881F441F9A9551F7F901612D4F9120
:100716003F912F911F91662332F0550FEE1FFF1F59
:10072600661F7A954BF2DDDE5F910895109639F0DB
:10073600A89580EA9FE00197F1F71197C9F7089508
:00000001FF
